{
  "contractName": "Dice2Win",
  "abi": [
    {
      "constant": true,
      "inputs": [],
      "name": "secretSigner",
      "outputs": [
        {
          "name": "",
          "type": "address"
        }
      ],
      "payable": false,
      "stateMutability": "view",
      "type": "function"
    },
    {
      "constant": true,
      "inputs": [],
      "name": "jackpotSize",
      "outputs": [
        {
          "name": "",
          "type": "uint128"
        }
      ],
      "payable": false,
      "stateMutability": "view",
      "type": "function"
    },
    {
      "constant": true,
      "inputs": [],
      "name": "croupier",
      "outputs": [
        {
          "name": "",
          "type": "address"
        }
      ],
      "payable": false,
      "stateMutability": "view",
      "type": "function"
    },
    {
      "constant": true,
      "inputs": [],
      "name": "owner",
      "outputs": [
        {
          "name": "",
          "type": "address"
        }
      ],
      "payable": false,
      "stateMutability": "view",
      "type": "function"
    },
    {
      "constant": true,
      "inputs": [],
      "name": "maxProfit",
      "outputs": [
        {
          "name": "",
          "type": "uint256"
        }
      ],
      "payable": false,
      "stateMutability": "view",
      "type": "function"
    },
    {
      "constant": true,
      "inputs": [],
      "name": "lockedInBets",
      "outputs": [
        {
          "name": "",
          "type": "uint128"
        }
      ],
      "payable": false,
      "stateMutability": "view",
      "type": "function"
    },
    {
      "inputs": [],
      "payable": false,
      "stateMutability": "nonpayable",
      "type": "constructor"
    },
    {
      "payable": true,
      "stateMutability": "payable",
      "type": "fallback"
    },
    {
      "anonymous": false,
      "inputs": [
        {
          "indexed": true,
          "name": "beneficiary",
          "type": "address"
        },
        {
          "indexed": false,
          "name": "amount",
          "type": "uint256"
        }
      ],
      "name": "FailedPayment",
      "type": "event"
    },
    {
      "anonymous": false,
      "inputs": [
        {
          "indexed": true,
          "name": "beneficiary",
          "type": "address"
        },
        {
          "indexed": false,
          "name": "amount",
          "type": "uint256"
        }
      ],
      "name": "Payment",
      "type": "event"
    },
    {
      "anonymous": false,
      "inputs": [
        {
          "indexed": true,
          "name": "beneficiary",
          "type": "address"
        },
        {
          "indexed": false,
          "name": "amount",
          "type": "uint256"
        }
      ],
      "name": "JackpotPayment",
      "type": "event"
    },
    {
      "anonymous": false,
      "inputs": [
        {
          "indexed": false,
          "name": "commit",
          "type": "uint256"
        }
      ],
      "name": "Commit",
      "type": "event"
    },
    {
      "anonymous": false,
      "inputs": [
        {
          "indexed": false,
          "name": "commit",
          "type": "uint256"
        }
      ],
      "name": "SettleCommit",
      "type": "event"
    },
    {
      "constant": false,
      "inputs": [
        {
          "name": "_nextOwner",
          "type": "address"
        }
      ],
      "name": "approveNextOwner",
      "outputs": [],
      "payable": false,
      "stateMutability": "nonpayable",
      "type": "function"
    },
    {
      "constant": false,
      "inputs": [],
      "name": "acceptNextOwner",
      "outputs": [],
      "payable": false,
      "stateMutability": "nonpayable",
      "type": "function"
    },
    {
      "constant": false,
      "inputs": [
        {
          "name": "newSecretSigner",
          "type": "address"
        }
      ],
      "name": "setSecretSigner",
      "outputs": [],
      "payable": false,
      "stateMutability": "nonpayable",
      "type": "function"
    },
    {
      "constant": false,
      "inputs": [
        {
          "name": "newCroupier",
          "type": "address"
        }
      ],
      "name": "setCroupier",
      "outputs": [],
      "payable": false,
      "stateMutability": "nonpayable",
      "type": "function"
    },
    {
      "constant": false,
      "inputs": [
        {
          "name": "_maxProfit",
          "type": "uint256"
        }
      ],
      "name": "setMaxProfit",
      "outputs": [],
      "payable": false,
      "stateMutability": "nonpayable",
      "type": "function"
    },
    {
      "constant": false,
      "inputs": [
        {
          "name": "increaseAmount",
          "type": "uint256"
        }
      ],
      "name": "increaseJackpot",
      "outputs": [],
      "payable": false,
      "stateMutability": "nonpayable",
      "type": "function"
    },
    {
      "constant": false,
      "inputs": [
        {
          "name": "beneficiary",
          "type": "address"
        },
        {
          "name": "withdrawAmount",
          "type": "uint256"
        }
      ],
      "name": "withdrawFunds",
      "outputs": [],
      "payable": false,
      "stateMutability": "nonpayable",
      "type": "function"
    },
    {
      "constant": false,
      "inputs": [],
      "name": "kill",
      "outputs": [],
      "payable": false,
      "stateMutability": "nonpayable",
      "type": "function"
    },
    {
      "constant": false,
      "inputs": [
        {
          "name": "betMask",
          "type": "uint256"
        },
        {
          "name": "modulo",
          "type": "uint256"
        },
        {
          "name": "commitLastBlock",
          "type": "uint256"
        },
        {
          "name": "commit",
          "type": "uint256"
        },
        {
          "name": "r",
          "type": "bytes32"
        },
        {
          "name": "s",
          "type": "bytes32"
        }
      ],
      "name": "placeBet",
      "outputs": [],
      "payable": true,
      "stateMutability": "payable",
      "type": "function"
    },
    {
      "constant": false,
      "inputs": [
        {
          "name": "reveal",
          "type": "uint256"
        },
        {
          "name": "blockHash",
          "type": "bytes32"
        }
      ],
      "name": "settleBet",
      "outputs": [],
      "payable": false,
      "stateMutability": "nonpayable",
      "type": "function"
    },
    {
      "constant": false,
      "inputs": [
        {
          "name": "reveal",
          "type": "uint256"
        },
        {
          "name": "canonicalBlockNumber",
          "type": "uint40"
        }
      ],
      "name": "settleBetUncleMerkleProof",
      "outputs": [],
      "payable": false,
      "stateMutability": "nonpayable",
      "type": "function"
    },
    {
      "constant": false,
      "inputs": [
        {
          "name": "commit",
          "type": "uint256"
        }
      ],
      "name": "refundBet",
      "outputs": [],
      "payable": false,
      "stateMutability": "nonpayable",
      "type": "function"
    }
  ],
  "bytecode": "0x608060405234801561001057600080fd5b5060008054600160a060020a0319908116331790915560038054821673eeeeeeeeeeeeeeeeeeeeeeeeeeeeeeeeeeeeeeee90811790915560068054909216179055612312806100606000396000f3006080604052600436106100fb5763ffffffff7c010000000000000000000000000000000000000000000000000000000060003504166341c0e1b581146100fd5780634d61537f1461011257806357246d23146101435780635e83b463146101745780636b5c5f391461018e57806374e048d5146101a35780638da5cb5b146101c5578063b539cd55146101da578063c107532914610201578063ca722cdc14610225578063d06c54fb14610240578063d579fd4414610255578063d6d30a5114610276578063d702087f1461028e578063df88126f146102af578063e1fdb4b4146102c4578063f8bb201c146102dc578063fbd668a9146102fd575b005b34801561010957600080fd5b506100fb610315565b34801561011e57600080fd5b50610127610439565b60408051600160a060020a039092168252519081900360200190f35b34801561014f57600080fd5b50610158610448565b604080516001608060020a039092168252519081900360200190f35b6100fb60043560243560443560643560843560a435610457565b34801561019a57600080fd5b50610127610a22565b3480156101af57600080fd5b506100fb60043564ffffffffff60243516610a31565b3480156101d157600080fd5b50610127610c18565b3480156101e657600080fd5b506101ef610c27565b60408051918252519081900360200190f35b34801561020d57600080fd5b506100fb600160a060020a0360043516602435610c2d565b34801561023157600080fd5b506100fb600435602435610d95565b34801561024c57600080fd5b506100fb610ecf565b34801561026157600080fd5b506100fb600160a060020a0360043516610f74565b34801561028257600080fd5b506100fb60043561106b565b34801561029a57600080fd5b506100fb600160a060020a03600435166111f4565b3480156102bb57600080fd5b50610158611285565b3480156102d057600080fd5b506100fb60043561129b565b3480156102e857600080fd5b506100fb600160a060020a0360043516611458565b34801561030957600080fd5b506100fb6004356114e9565b600054600160a060020a03163314610377576040805160e560020a62461bcd02815260206004820152602660248201526000805160206122c7833981519152604482015260d160020a6537bbb732b91702606482015290519081900360840190fd5b600454608060020a90046001608060020a03161561042b576040805160e560020a62461bcd02815260206004820152604860248201527f416c6c20626574732073686f756c642062652070726f6365737365642028736560448201527f74746c6564206f7220726566756e64656429206265666f72652073656c662d6460648201527f657374727563742e000000000000000000000000000000000000000000000000608482015290519081900360a40190fd5b600054600160a060020a0316ff5b600354600160a060020a031681565b6004546001608060020a031681565b60008381526005602052604081206001810154909190819081908190819081906c010000000000000000000000009004600160a060020a03161561050b576040805160e560020a62461bcd02815260206004820152602160248201527f4265742073686f756c6420626520696e20612027636c65616e2720737461746560448201527f2e00000000000000000000000000000000000000000000000000000000000000606482015290519081900360840190fd5b34955060018c11801561051f575060648c11155b1515610575576040805160e560020a62461bcd02815260206004820152601e60248201527f4d6f64756c6f2073686f756c642062652077697468696e2072616e67652e0000604482015290519081900360640190fd5b662386f26fc1000086101580156105965750693f870857a3e0e38000008611155b15156105ec576040805160e560020a62461bcd02815260206004820152601e60248201527f416d6f756e742073686f756c642062652077697468696e2072616e67652e0000604482015290519081900360640190fd5b60008d1180156106015750650100000000008d105b1515610657576040805160e560020a62461bcd02815260206004820152601c60248201527f4d61736b2073686f756c642062652077697468696e2072616e67652e00000000604482015290519081900360640190fd5b438b10156106af576040805160e560020a62461bcd02815260206004820152601360248201527f436f6d6d69742068617320657870697265642e00000000000000000000000000604482015290519081900360640190fd5b8a8a604051602001808364ffffffffff1664ffffffffff167b01000000000000000000000000000000000000000000000000000000028152600501828152602001925050506040516020818303038152906040526040518082805190602001908083835b602083106107325780518252601f199092019160209182019101610713565b6001836020036101000a0380198251168184511680821785525050505050509050019150506040518091039020945060288c1115156107b657603f7920000000001000000000080000000004000000000200000000018e027e01041041041041041041041041041041041041041041041041041041041041160693508c9250610846565b60008d1180156107c657508b8d11155b1515610842576040805160e560020a62461bcd02815260206004820152602e60248201527f48696768206d6f64756c6f2072616e67652c206265744d61736b206c6172676560448201527f72207468616e206d6f64756c6f2e000000000000000000000000000000000000606482015290519081900360840190fd5b8c93505b610851868d866115d7565b600254919350915086018211156108b2576040805160e560020a62461bcd02815260206004820152601a60248201527f6d617850726f666974206c696d69742076696f6c6174696f6e2e000000000000604482015290519081900360640190fd5b600480546001608060020a03608060020a808304821686018216810292821692909217808216850182166fffffffffffffffffffffffffffffffff1991909116179283905530318382169290930481169190910116111561095d576040805160e560020a62461bcd02815260206004820152601f60248201527f43616e6e6f74206166666f726420746f206c6f73652074686973206265742e00604482015290519081900360640190fd5b604080518b815290517f5bdd2fc99022530157777690475b670d3872f32262eb1d47d9ba8000dad58f879181900360200190a150509284556001909301805460ff191660ff998a161761ff00191661010099909416989098029290921766ffffffffff00001916620100004364ffffffffff90811691909102919091176bffffffffff0000000000000019166701000000000000009190921602176bffffffffffffffffffffffff16336c010000000000000000000000000217909555505050505050565b600654600160a060020a031681565b600654600090819081908190600160a060020a03163314610ac2576040805160e560020a62461bcd02815260206004820152602c60248201527f4f6e6c7943726f7570696572206d6574686f64732063616c6c6564206279206e60448201527f6f6e2d63726f75706965722e0000000000000000000000000000000000000000606482015290519081900360840190fd5b85604051602001808281526020019150506040516020818303038152906040526040518082805190602001908083835b60208310610b115780518252601f199092019160209182019101610af2565b51815160209384036101000a600019018019909216911617905260408051929094018290039091206000818152600590925292902091975090955050505060fa64ffffffffff861601431115610bd7576040805160e560020a62461bcd02815260206004820152602260248201527f426c6f636b686173682063616e2774206265207175657269656420627920455660448201527f4d2e000000000000000000000000000000000000000000000000000000000000606482015290519081900360840190fd5b610be1604861171f565b610bec846044611ca0565b909250905064ffffffffff8516408214610c0557600080fd5b610c10838783611f2e565b505050505050565b600054600160a060020a031681565b60025481565b600054600160a060020a03163314610c8f576040805160e560020a62461bcd02815260206004820152602660248201526000805160206122c7833981519152604482015260d160020a6537bbb732b91702606482015290519081900360840190fd5b3031811115610d0d576040805160e560020a62461bcd028152602060048201526024808201527f496e63726561736520616d6f756e74206c6172676572207468616e2062616c6160448201527f6e63652e00000000000000000000000000000000000000000000000000000000606482015290519081900360840190fd5b60045430316001608060020a03808316608060020a90930481169290920190911682011115610d86576040805160e560020a62461bcd02815260206004820152601160248201527f4e6f7420656e6f7567682066756e64732e000000000000000000000000000000604482015290519081900360640190fd5b610d918282836121cf565b5050565b600654600090600160a060020a03163314610e20576040805160e560020a62461bcd02815260206004820152602c60248201527f4f6e6c7943726f7570696572206d6574686f64732063616c6c6564206279206e60448201527f6f6e2d63726f75706965722e0000000000000000000000000000000000000000606482015290519081900360840190fd5b82604051602001808281526020019150506040516020818303038152906040526040518082805190602001908083835b60208310610e6f5780518252601f199092019160209182019101610e50565b51815160209384036101000a60001901801990921691161790526040805192909401829003822080835293519396507fc6910485d7b3062691478824ebd2261693557219b0a5f78d9c76aa4bd4ee5c2a95509083900301925050a1505050565b600154600160a060020a03163314610f43576040805160e560020a62461bcd02815260206004820152602660248201527f43616e206f6e6c792061636365707420707265617070726f766564206e657720604482015260d160020a6537bbb732b91702606482015290519081900360840190fd5b6001546000805473ffffffffffffffffffffffffffffffffffffffff1916600160a060020a03909216919091179055565b600054600160a060020a03163314610fd6576040805160e560020a62461bcd02815260206004820152602660248201526000805160206122c7833981519152604482015260d160020a6537bbb732b91702606482015290519081900360840190fd5b600054600160a060020a038281169116141561103c576040805160e560020a62461bcd02815260206004820152601d60248201527f43616e6e6f7420617070726f76652063757272656e74206f776e65722e000000604482015290519081900360640190fd5b6001805473ffffffffffffffffffffffffffffffffffffffff1916600160a060020a0392909216919091179055565b600054600160a060020a031633146110cd576040805160e560020a62461bcd02815260206004820152602660248201526000805160206122c7833981519152604482015260d160020a6537bbb732b91702606482015290519081900360840190fd5b303181111561114b576040805160e560020a62461bcd028152602060048201526024808201527f496e63726561736520616d6f756e74206c6172676572207468616e2062616c6160448201527f6e63652e00000000000000000000000000000000000000000000000000000000606482015290519081900360840190fd5b60045430316001608060020a03808316608060020a909304811692909201909116820111156111c4576040805160e560020a62461bcd02815260206004820152601160248201527f4e6f7420656e6f7567682066756e64732e000000000000000000000000000000604482015290519081900360640190fd5b600480546fffffffffffffffffffffffffffffffff1981166001608060020a039182169390930116919091179055565b600054600160a060020a03163314611256576040805160e560020a62461bcd02815260206004820152602660248201526000805160206122c7833981519152604482015260d160020a6537bbb732b91702606482015290519081900360840190fd5b6003805473ffffffffffffffffffffffffffffffffffffffff1916600160a060020a0392909216919091179055565b600454608060020a90046001608060020a031681565b6000818152600560205260408120805490918082151561132b576040805160e560020a62461bcd02815260206004820152602260248201527f4265742073686f756c6420626520696e20616e2027616374697665272073746160448201527f7465000000000000000000000000000000000000000000000000000000000000606482015290519081900360840190fd5b600184015464ffffffffff620100009091041660fa0143116113bd576040805160e560020a62461bcd02815260206004820152602260248201527f426c6f636b686173682063616e2774206265207175657269656420627920455660448201527f4d2e000000000000000000000000000000000000000000000000000000000000606482015290519081900360840190fd5b6000845560018401546113dd90849060ff808216916101009004166115d7565b600480546001608060020a03608060020a8083048216869003821602918116919091178082168490039091166fffffffffffffffffffffffffffffffff19919091161790556001860154919350915061145190600160a060020a036c010000000000000000000000009091041684806121cf565b5050505050565b600054600160a060020a031633146114ba576040805160e560020a62461bcd02815260206004820152602660248201526000805160206122c7833981519152604482015260d160020a6537bbb732b91702606482015290519081900360840190fd5b6006805473ffffffffffffffffffffffffffffffffffffffff1916600160a060020a0392909216919091179055565b600054600160a060020a0316331461154b576040805160e560020a62461bcd02815260206004820152602660248201526000805160206122c7833981519152604482015260d160020a6537bbb732b91702606482015290519081900360840190fd5b693f870857a3e0e380000081106115d2576040805160e560020a62461bcd02815260206004820152602260248201527f6d617850726f6669742073686f756c6420626520612073616e65206e756d626560448201527f722e000000000000000000000000000000000000000000000000000000000000606482015290519081900360840190fd5b600255565b60008060008360001080156115ec5750848411155b1515611642576040805160e560020a62461bcd02815260206004820152601d60248201527f57696e2070726f626162696c697479206f7574206f662072616e67652e000000604482015290519081900360640190fd5b67016345785d8a0000861015611659576000611662565b66038d7ea4c680005b91505060648504660110d9316ec0008110156116825750660110d9316ec0005b808201861015611702576040805160e560020a62461bcd02815260206004820152602260248201527f42657420646f65736e2774206576656e20636f76657220686f7573652065646760448201527f652e000000000000000000000000000000000000000000000000000000000000606482015290519081900360840190fd5b838583838903030281151561171357fe5b04925050935093915050565b8035600090811a9080808080808080808060f78b10156117af576040805160e560020a62461bcd02815260206004820152602260248201527f52656365697074206c656166206c6f6e676572207468616e203535206279746560448201527f732e000000000000000000000000000000000000000000000000000000000000606482015290519081900360840190fd5b9a8a0160f519019a8b3560001a9950607f8a116117d15760018c019b50611842565b60808a101580156117e3575060b78a11155b1515611839576040805160e560020a62461bcd02815260206004820152601660248201527f5061746820697320616e20524c5020737472696e672e00000000000000000000604482015290519081900360640190fd5b9a8901607e19019a5b8b3560001a985060b989146118ee576040805160e560020a62461bcd028152602060048201526044602482018190527f5265636569707420737472696e6720697320616c77617973206174206c656173908201527f7420323536206279746573206c6f6e672c20627574206c657373207468616e2060648201527f36346b2e00000000000000000000000000000000000000000000000000000000608482015290519081900360a40190fd5b60039b909b019a8b3560001a975060f9881461197a576040805160e560020a62461bcd02815260206004820152603d60248201527f5265636569707420697320616c77617973206174206c6561737420323536206260448201527f79746573206c6f6e672c20627574206c657373207468616e2036346b2e000000606482015290519081900360840190fd5b60039b909b019a8b3560001a9650600187146119e0576040805160e560020a62461bcd02815260206004820152601960248201527f5374617475732073686f756c6420626520737563636573732e00000000000000604482015290519081900360640190fd5b60019b909b019a8b3560001a9550607f8611611a015760018c019b50611a72565b60808610158015611a13575060b78611155b1515611a69576040805160e560020a62461bcd02815260206004820181905260248201527f43756d756c61746976652067617320697320616e20524c5020737472696e672e604482015290519081900360640190fd5b9a8501607e19019a5b8b3560001a945060b98514611af7576040805160e560020a62461bcd02815260206004820152602660248201527f426c6f6f6d2066696c74657220697320616c776179732032353620627974657360448201527f206c6f6e672e0000000000000000000000000000000000000000000000000000606482015290519081900360840190fd5b6101039b909b019a8b3560001a935060f88414611b84576040805160e560020a62461bcd02815260206004820152602660248201527f4c6f6773206c697374206973206c657373207468616e2032353620627974657360448201527f206c6f6e672e0000000000000000000000000000000000000000000000000000606482015290519081900360840190fd5b60029b909b019a8b3560001a925060f88314611c10576040805160e560020a62461bcd02815260206004820152602660248201527f4c6f6720656e747279206973206c657373207468616e2032353620627974657360448201527f206c6f6e672e0000000000000000000000000000000000000000000000000000606482015290519081900360840190fd5b60029b909b019a8b3560001a915060948214611c76576040805160e560020a62461bcd02815260206004820152601960248201527f41646472657373206973203230206279746573206c6f6e672e00000000000000604482015290519081900360640190fd5b50600a198b0135600160a060020a0316308114611c9257600080fd5b505050505050505050505050565b6040516000908190818080808080805b601d198b013561ffff169550851515611cc857611dac565b601b198b013561ffff16945060208501861015611d2f576040805160e560020a62461bcd02815260206004820152601360248201527f536869667420626f756e647320636865636b2e00000000000000000000000000604482015290519081900360640190fd5b60048b81019b8601013593508315611d91576040805160e560020a62461bcd02815260206004820152601460248201527f4e6f6e2d656d707479206861736820736c6f742e000000000000000000000000604482015290519081900360640190fd5b858b89378b858901528588209b50859650858b019a50611cb0565b508a9750505083850161ffff601b198a01358116906019198b013516808701821015611e22576040805160e560020a62461bcd02815260206004820152601360248201527f536869667420626f756e647320636865636b2e00000000000000000000000000604482015290519081900360640190fd5b60068b019a50818b8437611e398184018989612282565b8183209b509981019961ffff601d198c013581169650601b198c013516945060208501861015611eb3576040805160e560020a62461bcd02815260206004820152601360248201527f536869667420626f756e647320636865636b2e00000000000000000000000000604482015290519081900360640190fd5b60048b81019b8601013593508315611f15576040805160e560020a62461bcd02815260206004820152601460248201527f4e6f6e2d656d707479206861736820736c6f742e000000000000000000000000604482015290519081900360640190fd5b858b893750505050830196909652509390932093915050565b8254600184015460ff808216916101008104909116906c010000000000000000000000009004600160a060020a031660008080808080808a1515611fe2576040805160e560020a62461bcd02815260206004820152602260248201527f4265742073686f756c6420626520696e20616e2027616374697665272073746160448201527f7465000000000000000000000000000000000000000000000000000000000000606482015290519081900360840190fd5b60008e600001819055508c8c604051602001808381526020018260001916600019168152602001925050506040516020818303038152906040526040518082805190602001908083835b6020831061204b5780518252601f19909201916020918201910161202c565b5181516020939093036101000a6000190180199091169216919091179052604051920182900390912099508c92508991505081151561208657fe5b0695506120948b8b8b6115d7565b90955093506000925082915060288a116120d45760018e0154600287900a6701000000000000009091041664ffffffffff16156120cf578492505b6120e0565b888610156120e0578492505b600480546001608060020a03608060020a8083048216899003821602911617905567016345785d8a00008b10612159576103e88a8881151561211e57fe5b0481151561212857fe5b06905080151561215957600480546fffffffffffffffffffffffffffffffff1981169091556001608060020a031691505b60008211156121a257604080518381529051600160a060020a038a16917fc388db0e8aa560a59633c094a0d0aa21322cd6234836fd5bac00fc5ae63b5783919081900360200190a25b6121bf88848401156121b6578385016121b9565b60015b856121cf565b5050505050505050505050505050565b604051600160a060020a0384169083156108fc029084906000818181858888f193505050501561223d57604080518281529051600160a060020a038516917fd4f43975feb89f48dd30cabbb32011045be187d1e11c8ea9faa43efc35282519919081900360200190a261227d565b604080518381529051600160a060020a038516917fac464fe4d3a86b9121261ac0a01dd981bfe0777c7c9d9c8f4473d31a9c0f9d2d919081900360200190a25b505050565b60005b602082106122a7578251845260209384019390920191601f1990910190612285565b50905182516020929092036101000a600019018019909116911617905256004f6e6c794f776e6572206d6574686f64732063616c6c6564206279206e6f6e2da165627a7a72305820e4b242ccf73780fb415c42fdb0265dde1b631ab1eea0e3ddf5856df7fa54ad490029",
  "source": "pragma solidity ^0.4.24;\r\n\r\n// * dice2.win - fair games that pay Ether. Version 5.\r\n//\r\n// * Ethereum smart contract, deployed at 0xD1CEeeeee83F8bCF3BEDad437202b6154E9F5405.\r\n//\r\n// * Uses hybrid commit-reveal + block hash random number generation that is immune\r\n//   to tampering by players, house and miners. Apart from being fully transparent,\r\n//   this also allows arbitrarily high bets.\r\n//\r\n// * Refer to https://dice2.win/whitepaper.pdf for detailed description and proofs.\r\n\r\ncontract Dice2Win {\r\n    /// *** Constants section\r\n\r\n    // Each bet is deducted 1% in favour of the house, but no less than some minimum.\r\n    // The lower bound is dictated by gas costs of the settleBet transaction, providing\r\n    // headroom for up to 10 Gwei prices.\r\n    uint constant HOUSE_EDGE_PERCENT = 1;\r\n    uint constant HOUSE_EDGE_MINIMUM_AMOUNT = 0.0003 ether;\r\n\r\n    // Bets lower than this amount do not participate in jackpot rolls (and are\r\n    // not deducted JACKPOT_FEE).\r\n    uint constant MIN_JACKPOT_BET = 0.1 ether;\r\n\r\n    // Chance to win jackpot (currently 0.1%) and fee deducted into jackpot fund.\r\n    uint constant JACKPOT_MODULO = 1000;\r\n    uint constant JACKPOT_FEE = 0.001 ether;\r\n\r\n    // There is minimum and maximum bets.\r\n    uint constant MIN_BET = 0.01 ether;\r\n    uint constant MAX_AMOUNT = 300000 ether;\r\n\r\n    // Modulo is a number of equiprobable outcomes in a game:\r\n    //  - 2 for coin flip\r\n    //  - 6 for dice\r\n    //  - 6*6 = 36 for double dice\r\n    //  - 100 for etheroll\r\n    //  - 37 for roulette\r\n    //  etc.\r\n    // It's called so because 256-bit entropy is treated like a huge integer and\r\n    // the remainder of its division by modulo is considered bet outcome.\r\n    uint constant MAX_MODULO = 100;\r\n\r\n    // For modulos below this threshold rolls are checked against a bit mask,\r\n    // thus allowing betting on any combination of outcomes. For example, given\r\n    // modulo 6 for dice, 101000 mask (base-2, big endian) means betting on\r\n    // 4 and 6; for games with modulos higher than threshold (Etheroll), a simple\r\n    // limit is used, allowing betting on any outcome in [0, N) range.\r\n    //\r\n    // The specific value is dictated by the fact that 256-bit intermediate\r\n    // multiplication result allows implementing population count efficiently\r\n    // for numbers that are up to 42 bits, and 40 is the highest multiple of\r\n    // eight below 42.\r\n    uint constant MAX_MASK_MODULO = 40;\r\n\r\n    // This is a check on bet mask overflow.\r\n    uint constant MAX_BET_MASK = 2 ** MAX_MASK_MODULO;\r\n\r\n    // EVM BLOCKHASH opcode can query no further than 256 blocks into the\r\n    // past. Given that settleBet uses block hash of placeBet as one of\r\n    // complementary entropy sources, we cannot process bets older than this\r\n    // threshold. On rare occasions dice2.win croupier may fail to invoke\r\n    // settleBet in this timespan due to technical issues or extreme Ethereum\r\n    // congestion; such bets can be refunded via invoking refundBet.\r\n    uint constant BET_EXPIRATION_BLOCKS = 250;\r\n\r\n    // Some deliberately invalid address to initialize the secret signer with.\r\n    // Forces maintainers to invoke setSecretSigner before processing any bets.\r\n    address constant DUMMY_ADDRESS = 0xEeeeeEeeeEeEeeEeEeEeeEEEeeeeEeeeeeeeEEeE;\r\n\r\n    // Standard contract ownership transfer.\r\n    address public owner;\r\n    address private nextOwner;\r\n\r\n    // Adjustable max bet profit. Used to cap bets against dynamic odds.\r\n    uint public maxProfit;\r\n\r\n    // The address corresponding to a private key used to sign placeBet commits.\r\n    address public secretSigner;\r\n\r\n    // Accumulated jackpot fund.\r\n    uint128 public jackpotSize;\r\n\r\n    // Funds that are locked in potentially winning bets. Prevents contract from\r\n    // committing to bets it cannot pay out.\r\n    uint128 public lockedInBets;\r\n\r\n    // A structure representing a single bet.\r\n    struct Bet {\r\n        // Wager amount in wei.\r\n        uint amount;\r\n        // Modulo of a game.\r\n        uint8 modulo;\r\n        // Number of winning outcomes, used to compute winning payment (* modulo/rollUnder),\r\n        // and used instead of mask for games with modulo > MAX_MASK_MODULO.\r\n        uint8 rollUnder;\r\n        // Block number of placeBet tx.\r\n        uint40 placeBlockNumber;\r\n        // Bit mask representing winning bet outcomes (see MAX_MASK_MODULO comment).\r\n        uint40 mask;\r\n        // Address of a gambler, used to pay out winning bets.\r\n        address gambler;\r\n    }\r\n\r\n    // Mapping from commits to all currently active & processed bets.\r\n    mapping (uint => Bet) bets;\r\n\r\n    // Croupier account.\r\n    address public croupier;\r\n\r\n    // Events that are issued to make statistic recovery easier.\r\n    event FailedPayment(address indexed beneficiary, uint amount);\r\n    event Payment(address indexed beneficiary, uint amount);\r\n    event JackpotPayment(address indexed beneficiary, uint amount);\r\n\r\n    // This event is emitted in placeBet to record commit in the logs.\r\n    event Commit(uint commit);\r\n\r\n    event SettleCommit(uint commit);\r\n\r\n    // Constructor. Deliberately does not take any parameters.\r\n    constructor () public {\r\n        owner = msg.sender;\r\n        secretSigner = DUMMY_ADDRESS;\r\n        croupier = DUMMY_ADDRESS;\r\n    }\r\n\r\n    // Standard modifier on methods invokable only by contract owner.\r\n    modifier onlyOwner {\r\n        require (msg.sender == owner, \"OnlyOwner methods called by non-owner.\");\r\n        _;\r\n    }\r\n\r\n    // Standard modifier on methods invokable only by contract owner.\r\n    modifier onlyCroupier {\r\n        require (msg.sender == croupier, \"OnlyCroupier methods called by non-croupier.\");\r\n        _;\r\n    }\r\n\r\n    // Standard contract ownership transfer implementation,\r\n    function approveNextOwner(address _nextOwner) external onlyOwner {\r\n        require (_nextOwner != owner, \"Cannot approve current owner.\");\r\n        nextOwner = _nextOwner;\r\n    }\r\n\r\n    function acceptNextOwner() external {\r\n        require (msg.sender == nextOwner, \"Can only accept preapproved new owner.\");\r\n        owner = nextOwner;\r\n    }\r\n\r\n    // Fallback function deliberately left empty. It's primary use case\r\n    // is to top up the bank roll.\r\n    function () public payable {\r\n    }\r\n\r\n    // See comment for \"secretSigner\" variable.\r\n    function setSecretSigner(address newSecretSigner) external onlyOwner {\r\n        secretSigner = newSecretSigner;\r\n    }\r\n\r\n    // Change the croupier address.\r\n    function setCroupier(address newCroupier) external onlyOwner {\r\n        croupier = newCroupier;\r\n    }\r\n\r\n    // Change max bet reward. Setting this to zero effectively disables betting.\r\n    function setMaxProfit(uint _maxProfit) public onlyOwner {\r\n        require (_maxProfit < MAX_AMOUNT, \"maxProfit should be a sane number.\");\r\n        maxProfit = _maxProfit;\r\n    }\r\n\r\n    // This function is used to bump up the jackpot fund. Cannot be used to lower it.\r\n    function increaseJackpot(uint increaseAmount) external onlyOwner {\r\n        require (increaseAmount <= address(this).balance, \"Increase amount larger than balance.\");\r\n        require (jackpotSize + lockedInBets + increaseAmount <= address(this).balance, \"Not enough funds.\");\r\n        jackpotSize += uint128(increaseAmount);\r\n    }\r\n\r\n    // Funds withdrawal to cover costs of dice2.win operation.\r\n    function withdrawFunds(address beneficiary, uint withdrawAmount) external onlyOwner {\r\n        require (withdrawAmount <= address(this).balance, \"Increase amount larger than balance.\");\r\n        require (jackpotSize + lockedInBets + withdrawAmount <= address(this).balance, \"Not enough funds.\");\r\n        sendFunds(beneficiary, withdrawAmount, withdrawAmount);\r\n    }\r\n\r\n    // Contract may be destroyed only when there are no ongoing bets,\r\n    // either settled or refunded. All funds are transferred to contract owner.\r\n    function kill() external onlyOwner {\r\n        require (lockedInBets == 0, \"All bets should be processed (settled or refunded) before self-destruct.\");\r\n        selfdestruct(owner);\r\n    }\r\n\r\n    /// *** Betting logic\r\n\r\n    // Bet states:\r\n    //  amount == 0 && gambler == 0 - 'clean' (can place a bet)\r\n    //  amount != 0 && gambler != 0 - 'active' (can be settled or refunded)\r\n    //  amount == 0 && gambler != 0 - 'processed' (can clean storage)\r\n    //\r\n    //  NOTE: Storage cleaning is not implemented in this contract version; it will be added\r\n    //        with the next upgrade to prevent polluting Ethereum state with expired bets.\r\n\r\n    // Bet placing transaction - issued by the player.\r\n    //  betMask         - bet outcomes bit mask for modulo <= MAX_MASK_MODULO,\r\n    //                    [0, betMask) for larger modulos.\r\n    //  modulo          - game modulo.\r\n    //  commitLastBlock - number of the maximum block where \"commit\" is still considered valid.\r\n    //  commit          - Keccak256 hash of some secret \"reveal\" random number, to be supplied\r\n    //                    by the dice2.win croupier bot in the settleBet transaction. Supplying\r\n    //                    \"commit\" ensures that \"reveal\" cannot be changed behind the scenes\r\n    //                    after placeBet have been mined.\r\n    //  r, s            - components of ECDSA signature of (commitLastBlock, commit). v is\r\n    //                    guaranteed to always equal 27.\r\n    //\r\n    // Commit, being essentially random 256-bit number, is used as a unique bet identifier in\r\n    // the 'bets' mapping.\r\n    //\r\n    // Commits are signed with a block limit to ensure that they are used at most once - otherwise\r\n    // it would be possible for a miner to place a bet with a known commit/reveal pair and tamper\r\n    // with the blockhash. Croupier guarantees that commitLastBlock will always be not greater than\r\n    // placeBet block number plus BET_EXPIRATION_BLOCKS. See whitepaper for details.\r\n    function placeBet(uint betMask, uint modulo, uint commitLastBlock, uint commit, bytes32 r, bytes32 s) external payable {\r\n        // Check that the bet is in 'clean' state.\r\n        Bet storage bet = bets[commit];\r\n        require (bet.gambler == address(0), \"Bet should be in a 'clean' state.\");\r\n\r\n        // Validate input data ranges.\r\n        uint amount = msg.value;\r\n        require (modulo > 1 && modulo <= MAX_MODULO, \"Modulo should be within range.\");\r\n        require (amount >= MIN_BET && amount <= MAX_AMOUNT, \"Amount should be within range.\");\r\n        require (betMask > 0 && betMask < MAX_BET_MASK, \"Mask should be within range.\");\r\n\r\n        // Check that commit is valid - it has not expired and its signature is valid.\r\n        require (block.number <= commitLastBlock, \"Commit has expired.\");\r\n        bytes32 signatureHash = keccak256(abi.encodePacked(uint40(commitLastBlock), commit));\r\n        //NEED DO!!\r\n        //require (secretSigner == ecrecover(signatureHash, 27, r, s), \"ECDSA signature is not valid.\");\r\n\r\n        uint rollUnder;\r\n        uint mask;\r\n\r\n        if (modulo <= MAX_MASK_MODULO) {\r\n            // Small modulo games specify bet outcomes via bit mask.\r\n            // rollUnder is a number of 1 bits in this mask (population count).\r\n            // This magic looking formula is an efficient way to compute population\r\n            // count on EVM for numbers below 2**40. For detailed proof consult\r\n            // the dice2.win whitepaper.\r\n            rollUnder = ((betMask * POPCNT_MULT) & POPCNT_MASK) % POPCNT_MODULO;\r\n            mask = betMask;\r\n        } else {\r\n            // Larger modulos specify the right edge of half-open interval of\r\n            // winning bet outcomes.\r\n            require (betMask > 0 && betMask <= modulo, \"High modulo range, betMask larger than modulo.\");\r\n            rollUnder = betMask;\r\n        }\r\n\r\n        // Winning amount and jackpot increase.\r\n        uint possibleWinAmount;\r\n        uint jackpotFee;\r\n\r\n        (possibleWinAmount, jackpotFee) = getDiceWinAmount(amount, modulo, rollUnder);\r\n\r\n        // Enforce max profit limit.\r\n        require (possibleWinAmount <= amount + maxProfit, \"maxProfit limit violation.\");\r\n\r\n        // Lock funds.\r\n        lockedInBets += uint128(possibleWinAmount);\r\n        jackpotSize += uint128(jackpotFee);\r\n\r\n        // Check whether contract has enough funds to process this bet.\r\n        require (jackpotSize + lockedInBets <= address(this).balance, \"Cannot afford to lose this bet.\");\r\n\r\n        // Record commit in logs.\r\n        emit Commit(commit);\r\n\r\n        // Store bet parameters on blockchain.\r\n        bet.amount = amount;\r\n        bet.modulo = uint8(modulo);\r\n        bet.rollUnder = uint8(rollUnder);\r\n        bet.placeBlockNumber = uint40(block.number);\r\n        bet.mask = uint40(mask);\r\n        bet.gambler = msg.sender;\r\n    }\r\n\r\n    // This is the method used to settle 99% of bets. To process a bet with a specific\r\n    // \"commit\", settleBet should supply a \"reveal\" number that would Keccak256-hash to\r\n    // \"commit\". \"blockHash\" is the block hash of placeBet block as seen by croupier; it\r\n    // is additionally asserted to prevent changing the bet outcomes on Ethereum reorgs.\r\n    function settleBet(uint reveal, bytes32 blockHash) external onlyCroupier {\r\n        uint commit = uint(keccak256(abi.encodePacked(reveal)));\r\n        emit SettleCommit(commit);\r\n\r\n        // Bet storage bet = bets[commit];\r\n        // uint placeBlockNumber = bet.placeBlockNumber;\r\n\r\n        // // Check that bet has not expired yet (see comment to BET_EXPIRATION_BLOCKS).\r\n        // require (block.number > placeBlockNumber, \"settleBet in the same block as placeBet, or before.\");\r\n        // require (block.number <= placeBlockNumber + BET_EXPIRATION_BLOCKS, \"Blockhash can't be queried by EVM.\");\r\n        // require (blockhash(placeBlockNumber) == blockHash);\r\n\r\n        // // Settle bet using reveal and blockHash as entropy sources.\r\n        // settleBetCommon(bet, reveal, blockHash);\r\n    }\r\n\r\n    // This method is used to settle a bet that was mined into an uncle block. At this\r\n    // point the player was shown some bet outcome, but the blockhash at placeBet height\r\n    // is different because of Ethereum chain reorg. We supply a full merkle proof of the\r\n    // placeBet transaction receipt to provide untamperable evidence that uncle block hash\r\n    // indeed was present on-chain at some point.\r\n    function settleBetUncleMerkleProof(uint reveal, uint40 canonicalBlockNumber) external onlyCroupier {\r\n        // \"commit\" for bet settlement can only be obtained by hashing a \"reveal\".\r\n        uint commit = uint(keccak256(abi.encodePacked(reveal)));\r\n\r\n        Bet storage bet = bets[commit];\r\n\r\n        // Check that canonical block hash can still be verified.\r\n        require (block.number <= canonicalBlockNumber + BET_EXPIRATION_BLOCKS, \"Blockhash can't be queried by EVM.\");\r\n\r\n        // Verify placeBet receipt.\r\n        requireCorrectReceipt(4 + 32 + 32 + 4);\r\n\r\n        // Reconstruct canonical & uncle block hashes from a receipt merkle proof, verify them.\r\n        bytes32 canonicalHash;\r\n        bytes32 uncleHash;\r\n        (canonicalHash, uncleHash) = verifyMerkleProof(commit, 4 + 32 + 32);\r\n        require (blockhash(canonicalBlockNumber) == canonicalHash);\r\n\r\n        // Settle bet using reveal and uncleHash as entropy sources.\r\n        settleBetCommon(bet, reveal, uncleHash);\r\n    }\r\n\r\n    // Common settlement code for settleBet & settleBetUncleMerkleProof.\r\n    function settleBetCommon(Bet storage bet, uint reveal, bytes32 entropyBlockHash) private {\r\n        // Fetch bet parameters into local variables (to save gas).\r\n        uint amount = bet.amount;\r\n        uint modulo = bet.modulo;\r\n        uint rollUnder = bet.rollUnder;\r\n        address gambler = bet.gambler;\r\n\r\n        // Check that bet is in 'active' state.\r\n        require (amount != 0, \"Bet should be in an 'active' state\");\r\n\r\n        // Move bet into 'processed' state already.\r\n        bet.amount = 0;\r\n\r\n        // The RNG - combine \"reveal\" and blockhash of placeBet using Keccak256. Miners\r\n        // are not aware of \"reveal\" and cannot deduce it from \"commit\" (as Keccak256\r\n        // preimage is intractable), and house is unable to alter the \"reveal\" after\r\n        // placeBet have been mined (as Keccak256 collision finding is also intractable).\r\n        bytes32 entropy = keccak256(abi.encodePacked(reveal, entropyBlockHash));\r\n\r\n        // Do a roll by taking a modulo of entropy. Compute winning amount.\r\n        uint dice = uint(entropy) % modulo;\r\n\r\n        uint diceWinAmount;\r\n        uint _jackpotFee;\r\n        (diceWinAmount, _jackpotFee) = getDiceWinAmount(amount, modulo, rollUnder);\r\n\r\n        uint diceWin = 0;\r\n        uint jackpotWin = 0;\r\n\r\n        // Determine dice outcome.\r\n        if (modulo <= MAX_MASK_MODULO) {\r\n            // For small modulo games, check the outcome against a bit mask.\r\n            if ((2 ** dice) & bet.mask != 0) {\r\n                diceWin = diceWinAmount;\r\n            }\r\n\r\n        } else {\r\n            // For larger modulos, check inclusion into half-open interval.\r\n            if (dice < rollUnder) {\r\n                diceWin = diceWinAmount;\r\n            }\r\n\r\n        }\r\n\r\n        // Unlock the bet amount, regardless of the outcome.\r\n        lockedInBets -= uint128(diceWinAmount);\r\n\r\n        // Roll for a jackpot (if eligible).\r\n        if (amount >= MIN_JACKPOT_BET) {\r\n            // The second modulo, statistically independent from the \"main\" dice roll.\r\n            // Effectively you are playing two games at once!\r\n            uint jackpotRng = (uint(entropy) / modulo) % JACKPOT_MODULO;\r\n\r\n            // Bingo!\r\n            if (jackpotRng == 0) {\r\n                jackpotWin = jackpotSize;\r\n                jackpotSize = 0;\r\n            }\r\n        }\r\n\r\n        // Log jackpot win.\r\n        if (jackpotWin > 0) {\r\n            emit JackpotPayment(gambler, jackpotWin);\r\n        }\r\n\r\n        // Send the funds to gambler.\r\n        sendFunds(gambler, diceWin + jackpotWin == 0 ? 1 wei : diceWin + jackpotWin, diceWin);\r\n    }\r\n\r\n    // Refund transaction - return the bet amount of a roll that was not processed in a\r\n    // due timeframe. Processing such blocks is not possible due to EVM limitations (see\r\n    // BET_EXPIRATION_BLOCKS comment above for details). In case you ever find yourself\r\n    // in a situation like this, just contact the dice2.win support, however nothing\r\n    // precludes you from invoking this method yourself.\r\n    function refundBet(uint commit) external {\r\n        // Check that bet is in 'active' state.\r\n        Bet storage bet = bets[commit];\r\n        uint amount = bet.amount;\r\n\r\n        require (amount != 0, \"Bet should be in an 'active' state\");\r\n\r\n        // Check that bet has already expired.\r\n        require (block.number > bet.placeBlockNumber + BET_EXPIRATION_BLOCKS, \"Blockhash can't be queried by EVM.\");\r\n\r\n        // Move bet into 'processed' state, release funds.\r\n        bet.amount = 0;\r\n\r\n        uint diceWinAmount;\r\n        uint jackpotFee;\r\n        (diceWinAmount, jackpotFee) = getDiceWinAmount(amount, bet.modulo, bet.rollUnder);\r\n\r\n        lockedInBets -= uint128(diceWinAmount);\r\n        jackpotSize -= uint128(jackpotFee);\r\n\r\n        // Send the refund.\r\n        sendFunds(bet.gambler, amount, amount);\r\n    }\r\n\r\n    // Get the expected win amount after house edge is subtracted.\r\n    function getDiceWinAmount(uint amount, uint modulo, uint rollUnder) private pure returns (uint winAmount, uint jackpotFee) {\r\n        require (0 < rollUnder && rollUnder <= modulo, \"Win probability out of range.\");\r\n\r\n        jackpotFee = amount >= MIN_JACKPOT_BET ? JACKPOT_FEE : 0;\r\n\r\n        uint houseEdge = amount * HOUSE_EDGE_PERCENT / 100;\r\n\r\n        if (houseEdge < HOUSE_EDGE_MINIMUM_AMOUNT) {\r\n            houseEdge = HOUSE_EDGE_MINIMUM_AMOUNT;\r\n        }\r\n\r\n        require (houseEdge + jackpotFee <= amount, \"Bet doesn't even cover house edge.\");\r\n        winAmount = (amount - houseEdge - jackpotFee) * modulo / rollUnder;\r\n    }\r\n\r\n    // Helper routine to process the payment.\r\n    function sendFunds(address beneficiary, uint amount, uint successLogAmount) private {\r\n        if (beneficiary.send(amount)) {\r\n            emit Payment(beneficiary, successLogAmount);\r\n        } else {\r\n            emit FailedPayment(beneficiary, amount);\r\n        }\r\n    }\r\n\r\n    // This are some constants making O(1) population count in placeBet possible.\r\n    // See whitepaper for intuition and proofs behind it.\r\n    uint constant POPCNT_MULT = 0x0000000000002000000000100000000008000000000400000000020000000001;\r\n    uint constant POPCNT_MASK = 0x0001041041041041041041041041041041041041041041041041041041041041;\r\n    uint constant POPCNT_MODULO = 0x3F;\r\n\r\n    // *** Merkle proofs.\r\n\r\n    // This helpers are used to verify cryptographic proofs of placeBet inclusion into\r\n    // uncle blocks. They are used to prevent bet outcome changing on Ethereum reorgs without\r\n    // compromising the security of the smart contract. Proof data is appended to the input data\r\n    // in a simple prefix length format and does not adhere to the ABI.\r\n    // Invariants checked:\r\n    //  - receipt trie entry contains a (1) successful transaction (2) directed at this smart\r\n    //    contract (3) containing commit as a payload.\r\n    //  - receipt trie entry is a part of a valid merkle proof of a block header\r\n    //  - the block header is a part of uncle list of some block on canonical chain\r\n    // The implementation is optimized for gas cost and relies on the specifics of Ethereum internal data structures.\r\n    // Read the whitepaper for details.\r\n\r\n    // Helper to verify a full merkle proof starting from some seedHash (usually commit). \"offset\" is the location of the proof\r\n    // beginning in the calldata.\r\n    function verifyMerkleProof(uint seedHash, uint offset) pure private returns (bytes32 blockHash, bytes32 uncleHash) {\r\n        // (Safe) assumption - nobody will write into RAM during this method invocation.\r\n        uint scratchBuf1;  assembly { scratchBuf1 := mload(0x40) }\r\n\r\n        uint uncleHeaderLength; uint blobLength; uint shift; uint hashSlot;\r\n\r\n        // Verify merkle proofs up to uncle block header. Calldata layout is:\r\n        //  - 2 byte big-endian slice length\r\n        //  - 2 byte big-endian offset to the beginning of previous slice hash within the current slice (should be zeroed)\r\n        //  - followed by the current slice verbatim\r\n        for (;; offset += blobLength) {\r\n            assembly { blobLength := and(calldataload(sub(offset, 30)), 0xffff) }\r\n            if (blobLength == 0) {\r\n                // Zero slice length marks the end of uncle proof.\r\n                break;\r\n            }\r\n\r\n            assembly { shift := and(calldataload(sub(offset, 28)), 0xffff) }\r\n            require (shift + 32 <= blobLength, \"Shift bounds check.\");\r\n\r\n            offset += 4;\r\n            assembly { hashSlot := calldataload(add(offset, shift)) }\r\n            require (hashSlot == 0, \"Non-empty hash slot.\");\r\n\r\n            assembly {\r\n                calldatacopy(scratchBuf1, offset, blobLength)\r\n                mstore(add(scratchBuf1, shift), seedHash)\r\n                seedHash := sha3(scratchBuf1, blobLength)\r\n                uncleHeaderLength := blobLength\r\n            }\r\n        }\r\n\r\n        // At this moment the uncle hash is known.\r\n        uncleHash = bytes32(seedHash);\r\n\r\n        // Construct the uncle list of a canonical block.\r\n        uint scratchBuf2 = scratchBuf1 + uncleHeaderLength;\r\n        uint unclesLength; assembly { unclesLength := and(calldataload(sub(offset, 28)), 0xffff) }\r\n        uint unclesShift;  assembly { unclesShift := and(calldataload(sub(offset, 26)), 0xffff) }\r\n        require (unclesShift + uncleHeaderLength <= unclesLength, \"Shift bounds check.\");\r\n\r\n        offset += 6;\r\n        assembly { calldatacopy(scratchBuf2, offset, unclesLength) }\r\n        memcpy(scratchBuf2 + unclesShift, scratchBuf1, uncleHeaderLength);\r\n\r\n        assembly { seedHash := sha3(scratchBuf2, unclesLength) }\r\n\r\n        offset += unclesLength;\r\n\r\n        // Verify the canonical block header using the computed sha3Uncles.\r\n        assembly {\r\n            blobLength := and(calldataload(sub(offset, 30)), 0xffff)\r\n            shift := and(calldataload(sub(offset, 28)), 0xffff)\r\n        }\r\n        require (shift + 32 <= blobLength, \"Shift bounds check.\");\r\n\r\n        offset += 4;\r\n        assembly { hashSlot := calldataload(add(offset, shift)) }\r\n        require (hashSlot == 0, \"Non-empty hash slot.\");\r\n\r\n        assembly {\r\n            calldatacopy(scratchBuf1, offset, blobLength)\r\n            mstore(add(scratchBuf1, shift), seedHash)\r\n\r\n            // At this moment the canonical block hash is known.\r\n            blockHash := sha3(scratchBuf1, blobLength)\r\n        }\r\n    }\r\n\r\n    // Helper to check the placeBet receipt. \"offset\" is the location of the proof beginning in the calldata.\r\n    // RLP layout: [triePath, str([status, cumGasUsed, bloomFilter, [[address, [topics], data]])]\r\n    function requireCorrectReceipt(uint offset) view private {\r\n        uint leafHeaderByte; assembly { leafHeaderByte := byte(0, calldataload(offset)) }\r\n\r\n        require (leafHeaderByte >= 0xf7, \"Receipt leaf longer than 55 bytes.\");\r\n        offset += leafHeaderByte - 0xf6;\r\n\r\n        uint pathHeaderByte; assembly { pathHeaderByte := byte(0, calldataload(offset)) }\r\n\r\n        if (pathHeaderByte <= 0x7f) {\r\n            offset += 1;\r\n\r\n        } else {\r\n            require (pathHeaderByte >= 0x80 && pathHeaderByte <= 0xb7, \"Path is an RLP string.\");\r\n            offset += pathHeaderByte - 0x7f;\r\n        }\r\n\r\n        uint receiptStringHeaderByte; assembly { receiptStringHeaderByte := byte(0, calldataload(offset)) }\r\n        require (receiptStringHeaderByte == 0xb9, \"Receipt string is always at least 256 bytes long, but less than 64k.\");\r\n        offset += 3;\r\n\r\n        uint receiptHeaderByte; assembly { receiptHeaderByte := byte(0, calldataload(offset)) }\r\n        require (receiptHeaderByte == 0xf9, \"Receipt is always at least 256 bytes long, but less than 64k.\");\r\n        offset += 3;\r\n\r\n        uint statusByte; assembly { statusByte := byte(0, calldataload(offset)) }\r\n        require (statusByte == 0x1, \"Status should be success.\");\r\n        offset += 1;\r\n\r\n        uint cumGasHeaderByte; assembly { cumGasHeaderByte := byte(0, calldataload(offset)) }\r\n        if (cumGasHeaderByte <= 0x7f) {\r\n            offset += 1;\r\n\r\n        } else {\r\n            require (cumGasHeaderByte >= 0x80 && cumGasHeaderByte <= 0xb7, \"Cumulative gas is an RLP string.\");\r\n            offset += cumGasHeaderByte - 0x7f;\r\n        }\r\n\r\n        uint bloomHeaderByte; assembly { bloomHeaderByte := byte(0, calldataload(offset)) }\r\n        require (bloomHeaderByte == 0xb9, \"Bloom filter is always 256 bytes long.\");\r\n        offset += 256 + 3;\r\n\r\n        uint logsListHeaderByte; assembly { logsListHeaderByte := byte(0, calldataload(offset)) }\r\n        require (logsListHeaderByte == 0xf8, \"Logs list is less than 256 bytes long.\");\r\n        offset += 2;\r\n\r\n        uint logEntryHeaderByte; assembly { logEntryHeaderByte := byte(0, calldataload(offset)) }\r\n        require (logEntryHeaderByte == 0xf8, \"Log entry is less than 256 bytes long.\");\r\n        offset += 2;\r\n\r\n        uint addressHeaderByte; assembly { addressHeaderByte := byte(0, calldataload(offset)) }\r\n        require (addressHeaderByte == 0x94, \"Address is 20 bytes long.\");\r\n\r\n        uint logAddress; assembly { logAddress := and(calldataload(sub(offset, 11)), 0xffffffffffffffffffffffffffffffffffffffff) }\r\n        require (logAddress == uint(address(this)));\r\n    }\r\n\r\n    // Memory copy.\r\n    function memcpy(uint dest, uint src, uint len) pure private {\r\n        // Full 32 byte words\r\n        for(; len >= 32; len -= 32) {\r\n            assembly { mstore(dest, mload(src)) }\r\n            dest += 32; src += 32;\r\n        }\r\n\r\n        // Remaining bytes\r\n        uint mask = 256 ** (32 - len) - 1;\r\n        assembly {\r\n            let srcpart := and(mload(src), not(mask))\r\n            let destpart := and(mload(dest), mask)\r\n            mstore(dest, or(destpart, srcpart))\r\n        }\r\n    }\r\n}",
  "sourcePath": "D:\\work\\truffle\\dice2win\\contracts\\Dice2Win.sol",
  "compiler": {
    "name": "solc",
    "version": "0.4.24+commit.e67f0147.Emscripten.clang"
  },
  "schemaVersion": "2.0.1",
  "updatedAt": "2018-11-26T10:46:25.798Z"
}